{
  "contractName": "Course",
  "abi": [
    {
      "anonymous": false,
      "inputs": [
        {
          "indexed": false,
          "internalType": "uint256",
          "name": "",
          "type": "uint256"
        },
        {
          "indexed": false,
          "internalType": "address",
          "name": "",
          "type": "address"
        }
      ],
      "name": "LogNewProduct",
      "type": "event"
    },
    {
      "constant": false,
      "inputs": [
        {
          "internalType": "uint256",
          "name": "_id",
          "type": "uint256"
        },
        {
          "internalType": "string",
          "name": "_name",
          "type": "string"
        },
        {
          "internalType": "string",
          "name": "_weight",
          "type": "string"
        },
        {
          "internalType": "string",
          "name": "_detail",
          "type": "string"
        },
        {
          "internalType": "bool",
          "name": "_ractopamine",
          "type": "bool"
        }
      ],
      "name": "newProduct",
      "outputs": [],
      "payable": false,
      "stateMutability": "nonpayable",
      "type": "function"
    },
    {
      "constant": false,
      "inputs": [
        {
          "internalType": "uint256",
          "name": "_index",
          "type": "uint256"
        }
      ],
      "name": "getProduct",
      "outputs": [
        {
          "internalType": "uint256",
          "name": "",
          "type": "uint256"
        },
        {
          "internalType": "string",
          "name": "",
          "type": "string"
        },
        {
          "internalType": "string",
          "name": "",
          "type": "string"
        },
        {
          "internalType": "string",
          "name": "",
          "type": "string"
        },
        {
          "internalType": "bool",
          "name": "",
          "type": "bool"
        }
      ],
      "payable": false,
      "stateMutability": "nonpayable",
      "type": "function"
    }
  ],
  "bytecode": "0x6080604052600160005534801561001557600080fd5b50610895806100256000396000f3fe608060405234801561001057600080fd5b50600436106100365760003560e01c8063b9db15b41461003b578063d1481449146101cc575b600080fd5b6100676004803603602081101561005157600080fd5b81019080803590602001909291905050506103cb565b6040518086815260200180602001806020018060200185151515158152602001848103845288818151815260200191508051906020019080838360005b838110156100bf5780820151818401526020810190506100a4565b50505050905090810190601f1680156100ec5780820380516001836020036101000a031916815260200191505b50848103835287818151815260200191508051906020019080838360005b8381101561012557808201518184015260208101905061010a565b50505050905090810190601f1680156101525780820380516001836020036101000a031916815260200191505b50848103825286818151815260200191508051906020019080838360005b8381101561018b578082015181840152602081019050610170565b50505050905090810190601f1680156101b85780820380516001836020036101000a031916815260200191505b509850505050505050505060405180910390f35b6103c9600480360360a08110156101e257600080fd5b81019080803590602001909291908035906020019064010000000081111561020957600080fd5b82018360208201111561021b57600080fd5b8035906020019184600183028401116401000000008311171561023d57600080fd5b91908080601f016020809104026020016040519081016040528093929190818152602001838380828437600081840152601f19601f820116905080830192505050505050509192919290803590602001906401000000008111156102a057600080fd5b8201836020820111156102b257600080fd5b803590602001918460018302840111640100000000831117156102d457600080fd5b91908080601f016020809104026020016040519081016040528093929190818152602001838380828437600081840152601f19601f8201169050808301925050505050505091929192908035906020019064010000000081111561033757600080fd5b82018360208201111561034957600080fd5b8035906020019184600183028401116401000000008311171561036b57600080fd5b91908080601f016020809104026020016040519081016040528093929190818152602001838380828437600081840152601f19601f820116905080830192505050505050509192919290803515159060200190929190505050610638565b005b60006060806060600060016000878152602001908152602001600020600001546001600088815260200190815260200160002060010160016000898152602001908152602001600020600201600160008a8152602001908152602001600020600301600160008b815260200190815260200160002060040160009054906101000a900460ff16838054600181600116156101000203166002900480601f0160208091040260200160405190810160405280929190818152602001828054600181600116156101000203166002900480156104e65780601f106104bb576101008083540402835291602001916104e6565b820191906000526020600020905b8154815290600101906020018083116104c957829003601f168201915b50505050509350828054600181600116156101000203166002900480601f0160208091040260200160405190810160405280929190818152602001828054600181600116156101000203166002900480156105825780601f1061055757610100808354040283529160200191610582565b820191906000526020600020905b81548152906001019060200180831161056557829003601f168201915b50505050509250818054600181600116156101000203166002900480601f01602080910402602001604051908101604052809291908181526020018280546001816001161561010002031660029004801561061e5780601f106105f35761010080835404028352916020019161061e565b820191906000526020600020905b81548152906001019060200180831161060157829003601f168201915b505050505091509450945094509450945091939590929450565b61064061078a565b6040518060a0016040528087815260200186815260200185815260200184815260200183151581525090508060016000805481526020019081526020016000206000820151816000015560208201518160010190805190602001906106a69291906107bb565b5060408201518160020190805190602001906106c39291906107bb565b5060608201518160030190805190602001906106e09291906107bb565b5060808201518160040160006101000a81548160ff02191690831515021790555090505060008081548092919060010191905055507f991ad728e8095309bbed1aee2da31bc7fdcabca1500cf40fa4fcf2abef2d8da760005433604051808381526020018273ffffffffffffffffffffffffffffffffffffffff1673ffffffffffffffffffffffffffffffffffffffff1681526020019250505060405180910390a1505050505050565b6040518060a00160405280600081526020016060815260200160608152602001606081526020016000151581525090565b828054600181600116156101000203166002900490600052602060002090601f016020900481019282601f106107fc57805160ff191683800117855561082a565b8280016001018555821561082a579182015b8281111561082957825182559160200191906001019061080e565b5b509050610837919061083b565b5090565b61085d91905b80821115610859576000816000905550600101610841565b5090565b9056fea265627a7a7231582024991c981d9f4b9bc1fc7d1ad527ef27713c8768f94c3bf6e9947c364872e7ab64736f6c63430005100032",
  "source": "// SPDX-License-Identifier: GPL-3.0\r\npragma solidity >=0.4.16 <0.8.0;\r\n\r\ncontract Course {\r\n    \r\n    struct Product{\r\n        uint user_id;\r\n        string name;\r\n        string weight;\r\n        string detail;\r\n        bool ractopamine;\r\n    }\r\n    uint numProducts =1;\r\n    mapping ( uint => Product ) products;\r\n    \r\n    event LogNewProduct(uint , address );\r\n\r\n    \r\n    function newProduct(\r\n        uint _id,\r\n        string memory _name,\r\n        string memory _weight,\r\n        string memory _detail,\r\n        bool _ractopamine\r\n        ) \r\n        public {\r\n        Product memory Product_temp = Product(_id,_name,_weight,_detail,_ractopamine);\r\n        products[numProducts] = Product_temp;\r\n        numProducts++;\r\n        emit LogNewProduct(numProducts,msg.sender);\r\n    }\r\n\r\n    function getProduct(uint _index) \r\n        public returns (\r\n            uint,string memory,\r\n            string memory,\r\n            string memory,\r\n            bool) {\r\n        return( \r\n            products[_index].user_id,\r\n            products[_index].name,\r\n            products[_index].weight,\r\n            products[_index].detail,\r\n            products[_index].ractopamine\r\n            );\r\n    }\r\n}",
  "sourcePath": "C:/Users/b1060/Documents/GitHub/course_api/contracts/RTcourse.sol",
  "compiler": {
    "name": "solc",
    "version": "0.5.16+commit.9c3226ce.Emscripten.clang"
  },
  "schemaVersion": "3.4.1",
  "updatedAt": "2021-07-19T21:45:23.964Z",
  "devdoc": {
    "methods": {}
  },
  "userdoc": {
    "methods": {}
  }
}